:020000040800F2
:1000000098040020D5000008851B00082B0C000870
:1000100000000000000000000000000000000000E0
:10002000000000000000000000000000C51F0008E4
:100030000000000000000000CD1C00084B2100085B
:100040000501000805010008050100080501000878
:100050000501000805010008050100080501000868
:100060000501000805010008050100080501000858
:100070000501000805010008050100080501000848
:100080000501000805010008000000000501000846
:100090000501000805010008050100080501000828
:1000A0000501000805010008050100080501000818
:1000B0000501000800000000050100080000000024
:1000C0000348854600F002FD00480047F932000869
:1000D000980400200C4880F308880C480168090E39
:1000E0000B4A914205D10B480B4901600B480C4962
:1000F00001600C4880470C480047FEE7FEE7FEE73A
:10010000FEE7FEE7FEE70000980400200400000080
:100110001F00000018100240010000000000014014
:10012000000000004D210008C100000830B50B465A
:10013000014600202022012409E00D46D5409D42C1
:1001400005D31D469540491B254695404019154647
:10015000521E002DF1DC30BD70B50024254600286C
:1001600001DA01244042002901DA01254942FFF762
:10017000DDFFAC4200D04042002C00D0494270BDAF
:10018000F0B51FB486B00020009001900290069850
:10019000069980B204900798090C020400141143D8
:1001A00007900027089D099806913E463C4603901B
:1001B0000398A9B20204000C039004982D0C154377
:1001C00048430021224600F04DFBC719714110340D
:1001D0000E46402CECDB3846029A00F043FB009AB6
:1001E000019B8018009059410298019110300290B3
:1001F0004028CCDB00980BB0F0BDF8B502464A4071
:10020000D40F42004B0052085B089A4202D20246C9
:10021000084611464A0023D0C30D4A00DDB2120E33
:10022000AD1A202D35DA49020126490AF6058A1948
:10023000002C00D0524220214F1B1146B9402A41C8
:100240001018C20D9A4221D0002C17D0012D08DCC5
:10025000DA05801AD20F8019D207DBB200F03EFB1C
:10026000F8BDDA05801A012340001B06C01880186B
:100270005A428018CA0F1043490007E04908C207D4
:100280001143DA05801A80194008801800F01EFB1F
:10029000F8BD61000122511A001BF7E70122D207C5
:1002A0005140AAE70122D2075040A6E7024670B5A6
:1002B0004A40D30FDB0740002DD04A002AD0010E60
:1002C000140E000212020919400A520A8418E501AC
:1002D00004465443000A120A2E045043A41942193A
:1002E000200CC543AA18120C0125AD03521C52194B
:1002F00012047F39240400D0521C104301D4400062
:10030000491EC2B20C06C0092018401C4008802AB1
:1003100002D003E0002070BD40084000002900DA50
:100320000020184370BD70B502464A40D50F40000A
:100330004A00ED0740085208002814D0002A12D0C5
:10034000C40DD30D41020120C0055202490A520AD0
:10035000E41A091812187D34914201D3641C00E09C
:100360004900002C01DA002070BD0023914201D326
:10037000891A0343400849000028F7D100290AD010
:10038000914202D10121C90705E0914201D2012128
:1003900001E00121C943E005C018401900F096FAB8
:1003A00070BD420005D04200120E52428A4201DB6B
:1003B00000207047C905081870470000F0B50746CF
:1003C0000846584087B0C00F049048000E465900B8
:1003D00040084908BC1A884105D2384631461E46B5
:1003E00017460B4602465800400810434CD0300DCB
:1003F000039040055900400D490D0590401A0290A8
:10040000402872DA18030121000B09050843019006
:1004100004980092002805D001995242002088419A
:1004200000920190029840210A1A0199009800F068
:1004300019FA05460C466B4607CB00F034FAC01992
:100440007141039A0E0D0023D71756401A467A4081
:10045000164344D0049A002A2DD0029A012A039A06
:1004600015DC1205C01A914101263605001C7141A8
:10047000D20F059ED2070093019202962A46234688
:1004800000F09EFA07B0F0BD38463146FAE716058F
:10049000224A0F46B218C01AB74101210905001CB3
:1004A0004F4100187F41114618187941E20F10435F
:1004B0006D19644113E0E2076D0815436408C20733
:1004C0001443039A01261205C01A91413605001CF7
:1004D0007141CE07400830434908C01851412A46AF
:1004E000234600F060FACDE7FFE7049801224000C0
:1004F000C117121A00238B4104983146C417381AC9
:10050000A141EEE730B40124E407634030BC55E775
:1005100030B40124E407614030BC4FE70000E0FF45
:10052000F0B51FB488B00B99099800244840099988
:10053000C00F490049080991C0070B990090490074
:1005400049080B9109990898A64608431CD00B99B5
:100550000A98084318D0099801244000420D480029
:10056000410D099824050003000B204309900B98C6
:100570000003000B20430B9050181C494018002228
:1005800001901446104605E0002001460DB0F0BD74
:10059000032801DA034600E003239C46C11A0AAE91
:1005A0000AE05F0008ADED5B4F00F75B7D4300277D
:1005B000AA187C41491C5B1E6145F2DD410004AB79
:1005C0005A522104120C0A43240C401C0828DFDB79
:1005D000019802900099704601910090059B049A41
:1005E0000799069800F0ECF9D0E700000DFCFFFF3A
:1005F000F0B50C465C4085B0E40FE40703944C0072
:10060000002664085900944649080246029622438F
:1006100021D062460A431ED06200570D4A000E03E5
:100620002303550D012402462C492405781B1B0B7E
:10063000360B401823432643614600901C46501A4F
:10064000B44103D30098401C009002E09218009837
:100650005B41002803DA0020014605B0F0BD002010
:10066000012109050746864611E064461D46141B14
:10067000B54106D36546521BB341744607430C434C
:10068000A646CD0740084908284392185B41054615
:100690000D43EAD11046184313D060461946504026
:1006A0007140084306D06046101AB34106D20122B9
:1006B000002306E000220123DB0702E00122D243EF
:1006C0005310009874460105381C6141029C039D3B
:1006D0000019694100F067F9BFE70000FD03000061
:1006E00070B54B005B0803430BD04B005C0D00263C
:1006F00033466542B341D417AD1AA34102DB002053
:10070000014670BD12053018514170BDC217C10FAE
:10071000504010B54018CA079623002100F0DEF8BB
:1007200010BD00000EB5C217C10F5040CA074018D7
:100730000021054B0293019200910A460B4600F0FE
:100740003FF903B000BD0000330400000EB50549B9
:100750000291002100910A460B46019100F030F908
:1007600003B000BD330400004A0009030123090B54
:100770001B051943094B10B5520D9A4201DA0020AE
:1007800010BD064B34339A4203DC9A1A00F07AF813
:1007900010BD03495118884010BD0000FF03000040
:1007A000CDFBFFFFC20FD207400040080BD0C10DA8
:1007B0000723DB01C91840020905400A1143C2089A
:1007C000400711437047002001467047CB0FDB07FD
:1007D000490010B5490802460A4307D00A0D07240C
:1007E0000903E401090B121B002A01DC002010BDE3
:1007F000C900440F0C43C100E018D205801800F076
:1008000065F810BDF0B51FB40646002082B005465D
:100810004024019100901BE0019922460F4630468A
:1008200000F030F8049A059B801A994110D31046C5
:100830001946224600F016F8361A8F4101972246D3
:1008400001200021009F00F00DF838184D41009064
:100850002046641E0028DFDC019B009829463246B2
:1008600007B0F0BD10B5202A04DB0146203A9140C4
:10087000002010BD914020239C1A0346E3401943F9
:10088000904010BD10B5202A04DB0846203AD04025
:10089000002110BD0B46D340D0402024A21A914025
:1008A0000843194610BD10B5202A06DBCB170846B1
:1008B000203A1041C1170B4306E00B461341D040CC
:1008C0002024A21A91400843194610BD002904DAD9
:1008D000401C490001D140084000704770B400241A
:1008E000050C05D11024000402D1002921D01124C7
:1008F000050E01D100020834050F01D10001241DAD
:10090000850F01D18000A41C002801DB4000641C7D
:10091000002908D020252E1B0D46F540A14000D00F
:1009200001212943084301061B1B000ADB1D02D5D8
:10093000002070BC7047DB05181880180029F8DA11
:10094000401C4900F5D170BC40084000704770B5AC
:10095000002801DC002070BD410040020126400A51
:10096000F605090E8019CA0701D14000491E4D1035
:10097000002211463F353346CB409B18D4188442A1
:1009800001D8001B1A464000491C1729F3DD51000D
:10099000814202D20021C94300E00021E80580180D
:1009A000FFF794FF70BD10B5002B08DA0024401C3F
:1009B000614192185B411A4301D14008400010BDCB
:1009C000F0B51FB482B005460C0003D0084601F014
:1009D0004DFD02E001F04AFD203002460090214624
:1009E0002846FFF73FFF049B059A04460F4618432D
:1009F0001143084314D0184610431BD000984021DF
:100A00000A1A18460599FFF73DFF05460E46009A5B
:100A100005990498FFF726FF084305D0012004E05C
:100A20002046394607B0F0BD0020C11705430E43EC
:100A30002C43374300990E986305401A7905E40A60
:100A400000220C43FD0A0A3002D500200146E9E7E6
:100A50000105101969410C9C0D9D00196941FFF7B2
:100A6000A2FFDFE74A0009030123090B1B05194315
:100A70000A4B10B5520D9A4202DA0020014610BD11
:100A8000064B34339A4203DC9A1AFFF7FBFE10BD83
:100A9000034BD218FFF7E6FE10BD0000FF03000075
:100AA000CDFBFFFF10B5002904DB0124E407404221
:100AB0008C412146002B04DB1C460123DB075242FC
:100AC000A341994200D1904210BD0000064C01257F
:100AD000064E05E0E36807CC2B430C3C98471034E6
:100AE000B442F7D3FFF7F0FAE840000808410008E5
:100AF000FEB500231A461B1A8A4103DB002001467B
:100B000003B0F0BD4A000D0301212D0B0905520D64
:100B10000D43D10702D100186D41521E5110FF3113
:100B2000FF310131002704463E46384600970191C7
:100B30000246012100200905FFF7A4FEC3197141F7
:100B4000F818324684468E464A4161462846611A64
:100B5000904104D36046241A954176461F462419D5
:100B600000986D41401C00903428E1DDF9193046B1
:100B70007041091BA84103D20022D243134601E071
:100B80000022134601980105381C7141FFF70BFF45
:100B9000B6E7F0B50022012423460D6893401D40BE
:100BA0009D422AD10D79012D01D0022D12D18768E5
:100BB00055000326AE40B74387604E79AE40856846
:100BC0002E43866085889D43858085888B799340F8
:100BD0001D438580066855000323AB409E43066095
:100BE0000E790768AE403E430660C6689E43C66005
:100BF000CB79AB40C5682B43C360521C102ACBD3C2
:100C0000F0BD4B07DB0E9A40C90810B589000818E3
:100C1000016A0F249C40A1430162016A11430162F1
:100C200010BD0185704781617047FEE700290168AA
:100C300002D00122114301E04908490001607047D8
:100C40000246926900200A4200D00120704700004D
:100C500010B502685208520002600268134B8C689B
:100C60001A4024024B681443234303600F230A688D
:100C70001B069A430261026801231A4302600022A4
:100C80008260C2600B698A691A43826082680123AC
:100C9000DB031A438260CA68036813430360426837
:100CA000034B49691A401143416010BDFFE0CF007A
:100CB000FF7FFF07FFB581B001240B9F0A9E1D46F1
:100CC000E40321460198FFF7BBFF0028F9D101207A
:100CD00040030090002301220299019800F03AF8A5
:100CE00002210198FFF7ACFF0028F9D00399019881
:100CF00000F02EF809208002012300905B062A46AE
:100D00000299019800F026F800240DE004210198D2
:100D1000FFF796FF0028F9D00198002F0ED000F0C1
:100D200014F83055641CE4B2AC42EFD32021019892
:100D3000FFF786FF0028F9D005B0F0BD00F005F8F8
:100D4000291B89192039C877ECE7406AC0B270477F
:100D50008162704770B5049D44688905890D12044D
:100D6000034E11431943344029432143416070BD70
:100D7000009800FCF8B501261C4615460746F60308
:100D800001E0641EA4B231463846FFF759FFA8427D
:100D900001D0002CF5D1F8BDF8B5064612480C4636
:100DA000018015460121FF230022C9033046FFF7C9
:100DB000E1FF012040030303009001222146304659
:100DC000FFF7C8FF02213046FFF73AFF0028F9D0AD
:100DD00029463046FFF7BCFF20213046FFF730FFA1
:100DE0000028F9D0F8BD000014000020FFB581B044
:100DF00001270A9D1E461446FF0339460198FFF756
:100E00001FFF0028F9D1012040030090681CC2B2E6
:100E100001235B0602990198FFF79CFF02210198CC
:100E2000FFF70EFF0028F9D021460198FFF790FF49
:100E300000240BE002210198FFF702FF0028F9D0FF
:100E4000315D0198FFF784FF641CE4B2AC42F1D33A
:100E500020210198FFF7F4FE0028F9D005B0F0BD7D
:100E6000FEB5092000220521C006FFF7CAFE0920B1
:100E700000220621C006FFF7C4FE09200022072138
:100E8000C006FFF7BEFE0224684604710026867184
:100E9000C47103274771E020009009206946C0060D
:100EA000FFF777FE092002220821C006FFF7A9FEFE
:100EB00009210222C806FFF7A4FE092002220A2106
:100EC000C006FFF79EFE092002220B21C006FFF795
:100ED00098FE6846047186710125C57147710F201F
:100EE0000002009009206946C006FFF752FE012269
:100EF0000E211C48FFF785FE01220F211948FFF73C
:100F000080FE684604718671C5714771B803009010
:100F100069461448FFF73DFE68460571C5711C20FF
:100F2000009009206946C006FFF733FE09201C2106
:100F3000C006FFF776FE012208210A48FFF761FE8E
:100F4000012209210748FFF75CFE3802009068463D
:100F5000047147718671C57169460248FFF719FE31
:100F6000FEBD00000004004870B5032088B00121D8
:100F7000400400F071FF0121480500F079FF1020C6
:100F800000F08EFF01210D03284600F07DFFE120D7
:100F90000121C00200F078FFFF200121133000F092
:100FA00067FFFFF75DFF00246846C481102181813F
:100FB000FF2105314180C480032104818903018020
:100FC000E9104181072109028180164E69463046A9
:100FD00000F0C2FF2946304600F0E8FF012130460C
:100FE00000F0AAFF280203900694022001940494C2
:100FF000059402900C480D4C009069462046FFF77E
:1010000027FE01212046FFF711FE00F0BDFD00F094
:101010004FF900F00DF800F0F5F900F0DBF808B03A
:1010200070BD0000003001403D279000005400409A
:101030003EB50020694608710872284D012401ABB5
:101040006B22D02128460094FFF7D0FE0720694686
:10105000087101AB1922D02128460094FFF7C6FE83
:1010600069460C7101AB1A22D02128460094FFF783
:10107000BDFE10206946087101AB1B22D021284615
:101080000094FFF7B3FE08206946087101AB1C22EB
:10109000D02128460094FFF7A9FE04206946087174
:1010A00001AB1D22D02128460094FFF79FFE0220AD
:1010B0006946087202AB3722D02128460094FFF718
:1010C00095FE0F206946087202AB0A2218212846B5
:1010D0000094FFF78BFE00F0FDF83EBD0054004089
:1010E000F8B5164600F036F80924E4060821204633
:1010F000FFF797FD10212046FFF795FD134D144F84
:101100001BE000240221284600F01FFF0028F9D030
:10111000307806214843C0190019C03801782846A4
:1011200000F04EFF8021284600F00FFF0128F9D083
:10113000641CE4B2062CE5D3761C30780028E0D19C
:1011400009200821C006FFF76EFDF8BD0030014000
:101150002E3E000810B5044640200843002100F050
:101160007BF8204680210843002100F075F810BD6F
:10117000F8B500210C2000F06FF80021802000F06D
:101180006BF80926F60608213046FFF74AFD1021C4
:101190003046FFF748FD0E4D0221284600F0D5FEEF
:1011A0000028F9D00024FF27F9370021284600F055
:1011B00007FF8021284600F0C8FE0128F9D0641CF2
:1011C000A4B2BC42F1D308213046FFF72CFDF8BD94
:1011D00000300140F8B50926F60604213046FFF735
:1011E00020FD02F037F804213046FFF71CFD0821EE
:1011F0003046FFF716FD02F02DF808213046FFF7C4
:1012000012FD02F027F808213046FFF70AFD1021F1
:101210003046FFF706FD0E4D0221284600F095FEF0
:101220000028F9D00B4F0024395D284600F0C8FE95
:101230008021284600F089FE0128F9D0641CE4B220
:10124000062CF1D308213046FFF7EDFCF8BD000075
:1012500000300140283E000870B509250C460646BE
:10126000ED0608212846FFF7DCFC002C19D01021E0
:101270002846FFF7D8FC0D4C0221204600F065FE01
:101280000028F9D03146204600F09AFE8021204601
:1012900000F05BFE0128F9D008212846FFF7C3FCC7
:1012A00070BD10212846FFF7BCFCE4E70030014088
:1012B0000EB509200190002069460881034A0A8082
:1012C0004880034801F084F80EBD0000BF12000002
:1012D00000100040FEB51C4F002500246600F019E8
:1012E00000903046002143300191C2B20223D02148
:1012F0001648FFF7DFFCA1001548BB5F4258641C8D
:10130000D218E4B24250032CE8D36D1CEDB20A2D82
:10131000E3D3002427460546A600A8590A21FEF774
:101320001BFFA851084801970A3800190090204671
:101330001030C2B2012318210448FFF7BBFC641C23
:10134000E4B2032CE8D3FEBD6E0000200054004040
:101350008C000020FEB5204F00251F486C000C3883
:101360002018009020463B300026C2B2019602238E
:10137000D0211A48FFF79EFC3146174E0191B61F47
:10138000A019009020464330C2B20223D021134856
:10139000FFF790FCE01900900121E01C0191C2B21E
:1013A000022318210D48FFF785FC30460A38405DBE
:1013B000395B8038C217120E10180012401C4143CE
:1013C0003953AA000648315B805A6D1C081AEDB2E9
:1013D0003053032DC1D3FEBD7400002000540040E3
:1013E0008C0000201CB51120694608710120009076
:1013F00001AB0A2218210248FFF7F8FC1CBD0000CF
:10140000005400407CB500F08BFD2848284D002496
:1014100000900223A022EC2101942846FFF74AFC09
:10142000244800900223A222EC2101942846FFF7D1
:1014300041FC20480223801C0090A422EC2101944E
:101440002846FFF737FC1B480223001D0090A62208
:10145000EC2101942846FFF72DFC16480223801D3D
:101460000090A822EC2101942846FFF723FC1148A4
:10147000022308300090AA22EC2101942846FFF7AD
:1014800019FC0C4802230A300090AC22EC21019494
:101490002846FFF70FFC05480223801C0090AE226F
:1014A000EC2101942846FFF705FC7CBD18000020C4
:1014B000005400408000002010B50146094C7F22F6
:1014C0003F20D2050006A26060600020E06020613D
:1014D0006061A061E061206220701046FEF723FF8A
:1014E000606210BD30000020F8B52E4C21690F4617
:1014F0003846FEF7DBFEE168054608460091FEF738
:10150000D5FE3F2636063146FEF7CCFE2946FEF7CD
:10151000C5FE054638466169FEF7C8FE07460099D4
:10152000A068FEF7C3FE3946FEF767FE294601F0C4
:1015300063FDA0622169A068FEF7B8FE05466169F7
:10154000E068FEF7B3FE2946FEF7A8FEB101FEF7FC
:10155000ADFE01F0C5FCE062616900910846FEF74E
:10156000A5FE216905460F463846FEF79FFE314627
:10157000FEF798FE2946FEF791FE05460099A06801
:10158000FEF794FE06463946E068FEF78FFE3146C8
:10159000FEF733FE294601F02FFD20630120207065
:1015A000F8BD00003000002070B500210446C9439A
:1015B000FEF7F7FE0546104960100C1A2146284632
:1015C000FEF774FE2146FEF771FEFF26B605314692
:1015D000FEF768FE2146FEF769FE044601462846EE
:1015E000FEF764FE2146FEF761FE3146FEF75AFE25
:1015F0002146FEF75BFE70BDDF59375FFFB591B046
:101600001C460E46FE4D1A9F2946FEF74FFE1190CE
:1016100029463046FEF74AFE129029461398FEF7F7
:1016200045FE05466000000E06D17800000E03D18D
:101630001B984000000E7DD01B990846FEF736FE31
:10164000394600900846FEF731FE06462146084618
:10165000FEF72CFE3146FEF7D0FD0099FEF7CDFDDA
:10166000FFF7A2FF064601462046FEF71FFE149034
:1016700031463846FEF71AFE1A9031461B98FEF79F
:1016800015FE1E991B900846FEF710FE1D99064692
:101690000846FEF70BFE1C9904460846FEF706FEB8
:1016A0002146FEF7AAFD3146FEF7A7FDFFF77CFFB6
:1016B000044601461C98FEF7F9FD1C9021461D9832
:1016C000FEF7F4FD1D9021461E98FEF7EFFDCD4C70
:1016D0001E90A1680F463846FEF7E8FD0B90E168C2
:1016E00038460291FEF7E2FD0490216938460191E7
:1016F000FEF7DCFD0390616938460E46FEF7D6FD25
:10170000029908900846FEF7D1FD0F9001990298C2
:10171000FEF7CCFD079031460298FEF7C7FD069014
:1017200001990846FEF7C2FD059031460198FEF783
:10173000BDFD00E06DE1314609900846FEF7B6FDBB
:10174000029003990698FEF758FD0D901E99FEF73A
:10175000ADFD074608990798FEF7A0FD0C901D996E
:10176000FEF7A4FD06463F2000060599FEF796FD0C
:101770000299FEF793FD0E901C99FEF797FD3146F6
:10178000FEF73BFD3946FEF738FD0121FEF709FE65
:10179000064604990998FEF781FD1E99FEF786FD1D
:1017A00007463F2000060F99FEF778FD0F9002993B
:1017B000FEF774FD1D99FEF779FD019008990798D1
:1017C000FEF71BFD1C99FEF771FD0199FEF715FD53
:1017D0003946FEF712FD0121FEF7E3FD0146FEF753
:1017E00065FD074631460846FEF760FD3946FEF7BF
:1017F00004FD02F003FB019005990F98FEF74EFDE2
:1018000008901E99FEF752FD074604990998FEF7C5
:10181000F4FC09901D99FEF749FD064603990698C8
:10182000FEF73CFD07901C99FEF740FD3146FEF7A0
:10183000E4FC3946FEF7E1FC0121FEF7B2FD074664
:101840000798059009983F21049009060B98FEF728
:1018500025FD0299FEF7D1FC069039460798FEF760
:1018600025FD064601990E98FEF720FD3146FEF74C
:10187000C4FC079039460998FEF718FD0646019901
:101880000C98FEF713FD3146FEF7B7FC039039467E
:101890000898FEF70BFD064601990D98FEF706FD28
:1018A0003146FEF7AAFC064603991E98FEF7FEFC99
:1018B000074631461D98FEF7F9FC3946FEF7EEFC67
:1018C000074604991B98FEF7F1FC019006991A98B7
:1018D000FEF7ECFC0199FEF7E1FC3946FEF78DFCC2
:1018E000089031461C98FEF7E1FC064607991E98C1
:1018F000FEF7DCFC3146FEF7D1FC0646069914984B
:10190000FEF7D4FC074605991B98FEF7CFFC394635
:10191000FEF7C4FC3146FEF770FC029007991D9853
:10192000FEF7C4FC064603991C98FEF7BFFC31463F
:10193000FEF7B4FC064605991A98FEF7B7FC074671
:1019400004991498FEF7B2FC3946FEF7A7FC31461D
:10195000FEF753FC039060680121C905009088429E
:1019600033DB0899FEF7A2FC616A0191FEF79EFC49
:10197000A169FEF742FCA061074602990098FEF7B4
:1019800095FC0199FEF792FCE169FEF736FCE061F7
:10199000064603990098FEF789FC0199FEF786FC3C
:1019A000216AFEF72AFC2062044639461198FEF7A8
:1019B00024FC119031461298FEF71FFC129021462C
:1019C0002846FEF71AFC054603E00020A061E0610E
:1019D00020620D4C08982146FEF768FC1199FEF72D
:1019E0000CFC119021460298FEF760FC1299FEF75C
:1019F00004FC129021460398FEF758FC294605E0A6
:101A000039FA8E3C3000002000007042FEF7F5FBF2
:101A100005465B4C0021C943606AFEF7C2FC0646DE
:101A20001199FEF743FC119030461299FEF73EFCE7
:101A3000129030462946FEF739FC1390A6680796A7
:101A4000E568206902900190606913990590FEF79E
:101A50002DFC049012990198FEF728FC07460120FE
:101A6000C00768401199FEF721FC3946FEF716FCC5
:101A70000499FEF713FC3146FEF7BFFBA060099006
:101A800012990598FEF712FC074613990198FEF784
:101A90000DFC064607991198FEF708FC3146FEF743
:101AA000ACFB3946FEF7FAFB2946FEF7A6FBE060E1
:101AB000074605991198FEF7F9FB009028461399FF
:101AC000FEF7F4FB064612990798FEF7EFFB314646
:101AD000FEF7E4FB0099FEF790FB0299FEF78DFB01
:101AE0002061064601991198FEF7E0FB0090284618
:101AF0001299FEF7DBFB054613990798FEF7D6FB14
:101B00002946FEF77AFB0099FEF7C8FB0599FEF718
:101B100074FB01466061FEF7C9FB3146029008463E
:101B2000FEF7C4FB054639460846FEF7BFFB099998
:101B300006460846FEF7BAFB3146FEF75EFB29462D
:101B4000FEF75BFB0299FEF758FBFFF72DFD0546FC
:101B50000146A068FEF7AAFBA0602946E068FEF7F0
:101B6000A5FBE06029462069FEF7A0FB206129461D
:101B70006069FEF79BFB60610020207015B0F0BD2E
:101B80003000002070470000F0B548488BB046494F
:101B90000068FEF7CBFA401E069000266846868352
:101BA0009F218182C682867705A9414800F010FCFA
:101BB00005A9404800F00CFC702168460180012115
:101BC000418086800698FEF7C1FD3B4C3B4D224686
:101BD0002B46FEF7A5FCFEF7C7FD029002216846E2
:101BE0008181C681C901018246826946304800F080
:101BF000F3FA0698FEF7AAFD314E324F32463B46C5
:101C0000FEF78EFCFEF7B0FD02906946284800F012
:101C100021FB0698FEF79AFD22462B4BFEF780FC2F
:101C2000FEF7A2FD02906946214800F05BFB069892
:101C3000FEF78CFD0222D243FEF752FDFEF794FD23
:101C4000029069461A4800F091FB0698FEF77EFD67
:101C500022462B46FEF764FCFEF786FD029069469D
:101C6000144800F0B9FA0698FEF770FD32463B467C
:101C7000FEF756FCFEF778FD029069460D4800F02D
:101C8000E9FA01210A4800F091FA0121094800F01F
:101C90008DFA0121064800F093FA0121054800F071
:101CA0008FFA0BB0F0BD000080BB000000000020E8
:101CB000002C0140004001409A9999999999A93FB7
:101CC000333333333333B33F9999B93F704700000F
:101CD000F0B500218DB008910191069103910C910E
:101CE000544B53481D8944682A0E2D020E46651B2D
:101CF000914158890C460B462A463146FEF740FA78
:101D00004902C00D08437D21090140184A494B4F43
:101D100048600090B84216DA2846214602460B4633
:101D2000FEF72EFA4900C00F08430C900098C01B24
:101D30004043810041184810C21708908810019252
:101D4000C117039106903E490098884215DA49422E
:101D500041184943C800471A089AF817019BBA1856
:101D6000584101900B20414308924B10069AD81716
:101D700003999A184841069203902E480021408802
:101D80002A46070C06042B482346C088FEF7F8F9BC
:101D90004A06C0091043CA11311857412548059712
:101DA000049100880021460CC70322482A468088F7
:101DB0002346FEF7E5F90A06000A104309123346E6
:101DC00038184B41089C0499059F019A0D1B9741B7
:101DD0000C9A0099184C891A6160069A0399821A24
:101DE00013488B4100680021FEF7CAF9CA02400D72
:101DF00010434915401BB9414904C00B0843A0607A
:101E0000FEF790FC00220F4BFEF7F2FB0E4A0F4B41
:101E100001F0D2FA00220E4BFEF77AFB00220D4BA6
:101E2000FEF77EFBFEF7D2FCE0600DB0F0BD0000D7
:101E3000280000208000002018000020D0070000AB
:101E400024FAFFFFD0BCF8403C9F1E37637FC83F99
:101E50000000F03F40A5E540044A0029516901D047
:101E6000014300E0814351617047000000100240CF
:101E7000044A0029D16901D0014300E08143D161C6
:101E80007047000000100240044A0029916901D007
:101E9000014300E08143916170470000001002405F
:101EA00004490A6B10239A430A630A6B02430A63CC
:101EB00070470000001002401CB5002104480A468B
:101EC000019100900323EC210248FEF7F3FE1CBDB4
:101ED000280000200054004010B54822EC210248A0
:101EE000FEF75AFF10BD0000005400401CB5002151
:101EF00004480A46019100900323EC210248FEF7B2
:101F0000D9FE1CBD2C0000200054004010B5582202
:101F1000EC210248FEF740FF10BD000000540040D5
:101F200010B51E22EC210348FEF736FF042001F015
:101F300097F910BD0054004040220029018801D0CB
:101F4000114300E09143018070470246128900204E
:101F50000A4200D00120704730B50388C1229201A7
:101F600013400A88CC890D892243CC882C43224314
:101F70004C8922438C8922431A4302808288094B70
:101F80001A408B88134383800A8A028202880423C2
:101F900049889A4311430180818B034A1140818310
:101FA00030BD0000FFF00000FFF700008288034B07
:101FB0001A40828082880A4382807047FFEF0000C7
:101FC0000173704770470000F0B587B0FFF70AFA59
:101FD00000F0B2F8FFF780FFFFF7BCF92B4C0420AC
:101FE000205EFEF793FB03900220205EFEF78EFB3F
:101FF00002900020205EFEF789FB254C0190042012
:10200000205EFEF783FB00900220205EFEF77EFB41
:1020100006900020205EFEF779FB1E4C0590042000
:10202000205EFEF77FFB1C4F1C4B3A46FEF778FA0A
:10203000FEF7CCFB06460220205EFEF773FB3A4615
:10204000164BFEF76DFAFEF7C1FB05460020205E39
:10205000FEF768FB3A46114BFEF762FAFEF7B6FB55
:1020600004466F460FCF01AF0FC706980090324667
:1020700029462046059BFFF7C1FAFFF735FAFFF71F
:102080001BFFFFF725FE07B0F0BD00007400002025
:10209000680000206E0000205B5CE333D93F9F3F67
:1020A0001CB50021224801910091026801231B0404
:1020B0001A4302605B000522120304681C4000946E
:1020C000019C641C0194009C002C02D1019C944250
:1020D000F3D10268920328D501210091154A1121FC
:1020E0001160416841604168416041687F22D203CC
:1020F000914341604168112212041143416001681B
:10210000012212061143016001688901FCD5416872
:102110008908890041604168022211434160416899
:102120000907890F0229FAD11CBD00911CBD0000CE
:10213000001002400020024010B5FFF7E7FE022029
:1021400001F08EF8FFF7D2FE10BD704710B51448AD
:1021500001680122114301604168124A1140416047
:102160000168114A11400160016801229204914303
:10217000016041683F22120491434160C16A09092C
:102180000901C162016BFF22543291430163416B2B
:1021900049084900416300218160FFF781FF10BDBC
:1021A000001002400CB8FFF8FFFFF6FE002901887E
:1021B00002D00122114301E0490849000180704723
:1021C00040300029818803D00122D203114301E06D
:1021D0004904490C8180704730B5028C5208520086
:1021E0000284038C8288048B7025AC43A4080D887C
:1021F000A40025430224A3438C891C434B8823431A
:102200000F4CA04208D00F4CA04205D00E4CA0426B
:1022100002D00E4CA0420DD10824A343CC891C430C
:1022200004239C438B882343094C22400C8A14438B
:102230004A8A22438280058389684163038430BDD2
:10224000002C014000400140004401400048014092
:10225000FFFC000070B5028C10239A430284048CAA
:102260008288038B1A4D2B400D782D062D0C1D43B3
:1022700020239C438B891B051E0C4B8826431B0582
:102280001B0C144C3343A04202D0134EB04219D160
:10229000124E32400E8AB604360C3243A04211D19F
:1022A0008024A343CC892405240C1C4340239C4355
:1022B0008B881B051B0C2343094C22404C8AA40429
:1022C000240C22438280058389688163038470BD66
:1022D000FF8C0000002C014000400140FFFB00008B
:1022E000FFF7000030B5028C1A4B1A400284038CB1
:1022F0008288848B7025AC43A4080D88A4002543F4
:10230000154C23400C7B2406240C1C438B781B06A5
:102310001B0C2343114CA04215D1114C23408C7B44
:102320002406240C1C430F4B1C400B791B061B0C72
:1023300023430D4C22400C8A2405240C14434A8A62
:102340001205120C2243828085838968C16303844D
:1023500030BD0000FFFE0000FFFD0000002C01402A
:10236000FFF70000FFFB0000FFCF000030B5028C3C
:10237000124B1A400284048C8388828B104D2A40B1
:102380000D782D062D0C15430E4A14400A7B1207BA
:10239000120C22438C782407240C14430A4A9042DE
:1023A00005D10A4A13400A8A9205120C134383800E
:1023B000858389680164048430BD0000FFEF00005C
:1023C000FF8C0000FFDF0000002C0140FFBF000079
:1023D00010B50288144B984206D00124A407A042ED
:1023E00002D0124CA04203D17024A2434C88224355
:1023F0000F4CA04203D00F4C22400C892243028094
:102400004A68C2620A880285984208D00A4A904205
:1024100005D00A4A904202D0094A904201D1897AF5
:1024200001860121818210BD002C01400004004082
:1024300000100040FFFC000000400140004401404B
:10244000004801400FB410B504A9074B02AA039835
:1024500000F0A4F9044602A9002000F03BFD20464C
:1024600010BC08BC04B01847D52E00082021020C6F
:1024700001D010211046020A01D010460839020985
:1024800001D01046091F820801D01046891E42085B
:1024900001D0881E7047081A704700004900CA0220
:1024A0000243100000D004204A0D01D00122104345
:1024B000044A490D914201D102210843012800D16B
:1024C00005207047FF0700004100080200D00420EB
:1024D0000A0E01D001221043090EFF2901D1022169
:1024E0000843012800D105207047F8B504464F1E67
:1024F000C8000838211815461E46086849683A463B
:1025000006239A4310D02A463346FEF709F83A4686
:10251000D200083AA3181A687F1E5B68FDF74EFFC9
:1025200006223B469343EED1022F23D0042F11D035
:10253000062F2FD12A463346FDF7F2FFE36AA26A3F
:10254000FDF73CFF2A463346FDF7EAFF636A226A3D
:10255000FDF734FF2A463346FDF7E2FFE369A2693F
:10256000FDF72CFF2A463346FDF7DAFF636922693F
:10257000FDF724FF2A463346FDF7D2FFE368A26841
:10258000FDF71CFF2A463346FDF7CAFF6368226841
:10259000FDF714FFF8BD0000002210B513461046E9
:1025A0000149FEF725F810BD0000F03F10B5FDF71A
:1025B00005FF10BD002210B5134610461146FEF768
:1025C00017F810BD10B50721024A00200907FEF7D1
:1025D00087F810BD01030000034A10B50020110761
:1025E000FEF77EF810BD000001FDFFFF10B50121D0
:1025F000FDF7D7FE10BD10B5FDF7FFFD10BD10B5FE
:1026000000210846FDF78FFE10BD5E2110B5C943BD
:102610000807FDF7C6FE10BD02E008C8121F08C17A
:10262000002AFAD170477047002001E001C1121F53
:10263000002AFBD170470000014908607047000084
:102640007C000020F0B51FB484B007980699020DF5
:10265000014314D04A484B491018484305140F98B9
:1026600001280E981CD0281A401C0024464E4749C9
:10267000009401910290002814DA474227E00F9855
:10268000012443A3012808D0002104980F9A8460F4
:102690000360C260416009B0F0BD0E98C143F4E729
:1026A0004042E2E7074612E0F80707D022463346E9
:1026B00001990098FDF734FF0191009022463346BE
:1026C00010461946FDF72CFF04460E467F10002FDA
:1026D000EAD10298019B0028009A0799069802DA2D
:1026E000FDF71EFF01E0FDF783FF04460E460022C2
:1026F000284BFEF7D7F903D80020C043014607E076
:102700000022254B20463146FDF758FEFEF7AAF978
:10271000102409E0002C0ADB0A220023FEF772F8DD
:10272000059B30321A55641E02460A43F2D111222B
:10273000641C059B121B1C190F9B012B03D001234A
:1027400008430ED10AE0084304D011200E90002067
:102750000F9084E70E98151A6D1E0BE00E988242BA
:1027600002DD00236D1C03E0824201DA00236D1EAE
:10277000002BEED004980F998260C16030C08AE7C8
:1027800001FCFFFF104D0000000024400000F03F5E
:10279000300000000000F0430000E03FFFB597B0BC
:1027A0000646002518E2252877D100242746FD4952
:1027B000049400E00443761C32780120203A9040D3
:1027C0000842F7D130782A280ED00222307801460C
:1027D0003039092916D804990A2359433039401849
:1027E0001443761C0490F1E7189802C804911890DD
:1027F000002904DA012040030443484204900220E7
:102800000443761C30782E2814D1042004437078B9
:10281000761C2A2809D11898761C80C8189009E0DF
:102820000A214F43303FC719761C307801463039B2
:102830000929F5D930786C2810D006DC4C281AD03C
:1028400068280ED06A2817D104E0742813D07A289B
:1028500012D110E00120400504430CE001210905DC
:1028600001E0032109050C437178814203D1012065
:1028700000052418761C761C3078119066280BD041
:1028800013DC58287DD009DC00287BD04528F6D001
:102890004628F4D047281AD1A5E118E0632835D09E
:1028A000642870D0652812D19DE170286CD008DCB6
:1028B0006728F1D069287BD06E280DD06F2806D10B
:1028C000BAE073282ED0752871D0782859D01A9A7A
:1028D000199990476D1C7EE16002400F022809D0D3
:1028E00003280DD00428189801680DD00D60001D34
:1028F000189070E11898EA1701680D604A60F6E7D1
:10290000189801680D80F2E70D70F0E718986A4694
:1029100001781172001D18900020507202A80090DA
:10292000012005E0189802C8189000200091C043CB
:1029300061070DD5002101E00199491C0191B942BF
:1029400012DA8142F8DB009A515C0029F4D10BE0E5
:10295000002101E00199491C01918142FADB019AB1
:102960000099895C0029F5D1019904981A9B471AAE
:1029700021463846199A00F097FA019940194518EE
:102980000BE04FE02CE113E04EE000980099007856
:10299000491C00911A9A199990470198401E01907C
:1029A000401CF2D1214638461A9B199A10E137E0B3
:1029B0000A200021009001916002410F022907D0F6
:1029C000189A01CA1892C2179446032908D00AE03F
:1029D0001898C01DC108C90005C91891944607E0A0
:1029E00000B2C2179446042902D140B2C1178C46E6
:1029F00000226146944506DA0A4600214042914190
:102A00008C462D2102E0210504D52B216A46117345
:102A1000012103E0E10701D02021F7E7029155E011
:102A20000A200AE0102008E0102000900021042075
:102A300004430191082703E0082000210191009040
:102A40006002410F022907D0189A01CA1892002289
:102A50009446032908D008E01898C01DC108C90091
:102A600005C91891944603E080B2042900D1C0B290
:102A700000210291210729D51199702906D0009AC9
:102A80001021019B4A401A4305D00EE040216A46BE
:102A90001173012108E06146014306D030216A46E6
:102AA00011731199517302210291009A0821019B1F
:102AB0004A401A430AD16146014301D1610705D555
:102AC00030216A46117301217F1E02911199582904
:102AD00004D035A10E910DA90D910DE037A1F9E7B4
:102AE0006146019B009AFDF78DFE0E9B8C469B5C18
:102AF0000D9A521E0D92137061460143F0D10D984C
:102B000005A9081A20300190600703D501200004B0
:102B1000844300E001270198874201DD381A00E074
:102B20000020019900904118029809180498401A51
:102B30000490E00306D421461A9B199A049800F0E9
:102B4000B3F94519002706E003A81A9AC05D199940
:102B500090476D1C7F1C02988742F5DBE0030CD583
:102B600021461A9B199A049800F09EF9451904E031
:102B70001A9A3020199990476D1C0099481E0090B0
:102B80000029F5DC08E00D980D990078491C0D919D
:102B90001A9A199990476D1C0199481E01900029B5
:102BA000F1DC63E109280100303132333435363746
:102BB0003839616263646566000000003031323389
:102BC0003435363738394142434445460000000029
:102BD00000F05AF94519761C3078002800D0E2E55B
:102BE00028461BB0F0BD600700D406271898C01D0A
:102BF000C108C90048680A680831C30FDB0718918B
:102C0000190001D09CA108E0210501D59BA104E099
:102C1000E10701D09AA100E09AA1430011985B0856
:102C2000109165280CD006DC452809D046281DD017
:102C3000472841D141E0662818D067283CD13CE0C4
:102C40000021112F01DB112000E0781C0191009080
:102C500008A911A8FFF7F6FC139905910021119A14
:102C600015927F1C12980197009150E00120C00737
:102C700003900120019008A9009711A8FFF7E2FC3A
:102C8000139A149905920022119B009212981593A1
:102C9000059A0192002901D0104602E0791C4018E3
:102CA0000190381A01D5019804E04042401E00907E
:102CB000781C0190C01B029043E0012F00DA01272D
:102CC0000021112F01DD112000E038460191009014
:102CD00008A911A8FFF7B6FC13990591119A0021D4
:102CE000129815920091019721070CD40599B942C9
:102CF00001DB019900E00191012904DD159A491ECB
:102D0000515C302906D0B84201DA011D05DA0121F3
:102D1000029115E00199491EEDE7002805DC0099B4
:102D2000411800910199091A03E0019A411C91424E
:102D300000DD01910099401A401C02900120C0075B
:102D40000390200706D402990198814202DB0020FB
:102D5000C043029000206946C87707AF012103985D
:102D60000337C907884224D0022011902B201290EB
:102D7000039800280CDA404203902D20129007E0BF
:102D80000A210398FDF7D2F930317F1E0390397084
:102D90001199481E11900029F2DC03980028EFD108
:102DA000791E129808703078202108404530BF1EE7
:102DB000387006A8C01BC01D03901098007800282A
:102DC00000D00120019941180298C01709180398F2
:102DD00009180498401A401E0490E00306D42146C6
:102DE0001A9B199A049800F05FF84519109800781A
:102DF000002803D01A9A199990476D1CE00324D536
:102E000021461A9B199A049800F04EF845191CE0C7
:102E10000098002807DB00990598884203DD159883
:102E2000405C199901E0199930201A9A904700984E
:102E30006D1C401C00900298401E0290002804D196
:102E40001A9A2E20199990476D1C0199481E0190DD
:102E50000029DDDC05E038781A9A7F1C1999904723
:102E60006D1C0399481E03900029F4DC21461A9B2F
:102E7000199A0498ACE600002D0000002B00000019
:102E80002000000000000000F8B5044600251E46A2
:102E90001746880404D405E039462020B0476D1C4D
:102EA000641EF9D52846F8BDFFB50446002581B05B
:102EB0001E46C80301D5302700E02027880404D52A
:102EC00005E038460399B0476D1C641EF9D52846C5
:102ED00005B0F0BD0A68531C0B601070704700000D
:102EE000F8B504464721400049060D224118120654
:102EF000914253D83F21490688421BD960007F2167
:102F00004008C905FDF7CEF90021C943FDF749FA8C
:102F1000074600F073FF002C04DA2F4D2D4EA90751
:102F2000484001E02D4E2E4D03218907FDF7BEF9E3
:102F3000044606E00026214635460846FDF7B6F968
:102F4000074628493846FDF7B1F92749FDF755F9F5
:102F50003946FDF7ABF92549FDF74FF93946FDF73D
:102F6000A5F92349FDF749F93946FDF79FF92149AC
:102F7000FDF743F9009039462046FDF797F900998F
:102F8000FDF794F9074629462046FDF736F93946FC
:102F9000FDF733F93146FDF730F9F8BD392149061F
:102FA000884208D22046FFF78FFA042801D1FFF7A4
:102FB0002CFB2046F8BDFF210906884203D9204694
:102FC000FFF714FBF8BD0120FFF736FBFFF717FBF7
:102FD000F8BD00000000C9BF22AAFDB90000C93F2A
:102FE00022AAFD3924FE1C3DC78AD83C1E67383D05
:102FF0001B93993DAFAA2A3EF0B50C4601461D220F
:103000004B00D2069F18E52605463606620087B0BB
:103010002046B7427DD21D27FF06D719B74278D286
:103020004F0043003E0E1A0EB21A1B2A07DD00297C
:1030300002DA754807B0F0BD744807B0F0BD1A2633
:10304000F24217DA002807DA002902DA704807B0DE
:10305000F0BD704807B0F0BD21462846FDF763F982
:103060000446FFF731FA042801D1FFF7CEFA2046D3
:1030700007B0F0BD9F4211D9002902DA664F674EB2
:1030800001E0674F674E23462C461D46012203464A
:10309000D20708465440504019460BE0002807DA92
:1030A000002902DA604F614E04E0614F614E01E099
:1030B00000263746421A012352001B069A4230D29C
:1030C00048405D490BD5BF20000603903846FDF708
:1030D000E5F8074659493046FDF7E0F80AE03F2099
:1030E000000603903846FDF788F8074653493046F6
:1030F000FDF783F8064628460399FDF7D7F82146E1
:10310000FDF77BF8009021460398FDF7CFF829469C
:1031100000E03AE0FDF7C6F80099FDF704F904462F
:1031200004E021462846FDF7FEF804460146FDF777
:10313000BDF843490090FDF7B9F84249FDF75DF845
:103140000099FDF7B3F84049FDF757F80099FDF7EE
:10315000ADF83E49FDF751F80099FDF7A7F83C4955
:10316000FDF74BF8054620460099FDF79FF82946E4
:10317000FDF79CF83146FDF740F82146FDF73DF894
:103180003946FDF73AF807B0F0BDFF263606B342E0
:1031900001D8B24205D901462846FFF72CFA07B0FC
:1031A000F0BD2F4607437F000AD0B3420CD1B24294
:1031B0000AD101229207904391430D4604462FE71E
:1031C000FF22D2051043F9E7B34208D0460006D0EB
:1031D0005340F4D4002A08DB9F26F60507E0FF22BF
:1031E000D2051143E00FC0071AE75F26F605314606
:1031F0002846FDF75BF8054631462046FDF756F8B0
:10320000044629460CE70000DB0FC9BFDB0FC93FAE
:10321000DB0F49C0DB0F49400000C9BF22AAFDB93E
:103220000000C93F22AAFD39000049C022AA7DBA88
:103230000000494022AA7D3A0060ED3EC30ACE3725
:103240002DAD65BD8FB8D53D0FB511BE61C84C3EE3
:10325000A8AAAABE0020401C3028FCDB7047000052
:1032600009490A8801231A430A8006E00A8AD2071C
:10327000FCD00A8A520852000A82401EF6D2088800
:1032800040084000088070470010004010B5054C11
:103290002078002801D1FEF727F90349E06AFDF7FD
:1032A00005F810BD30000020E12E654210B5054C38
:1032B0002078002801D1FEF717F90349A06AFCF72E
:1032C000F5FF10BD30000020E12E654210B5074C1F
:1032D0002078002801D1FEF707F90549206BFCF79B
:1032E000E5FF0449FCF789FF10BD00003000002015
:1032F000E12E6542000034430EB5FDF735FE2A4845
:10330000FEF7DAF8FDF734FF284D0024009401940D
:103310000294FEF759FEFFF7C9FFFDF743FA024694
:103320000B4623A16846FFF78DF800216A46084640
:10333000FDF7D6FE009401940294FFF7A7FFFDF776
:1033400031FA02460B461AA16846FFF77BF86A4637
:1033500001210020FDF7C4FE009401940294FFF7C0
:10336000B5FFFDF71FFA02460B4611A16846FFF7AD
:1033700069F86A4602210020FDF7B2FE009401942C
:1033800002942868FDF70EFA02460B4608A168462B
:10339000FFF758F86A4603210020FDF7A1FE0094CC
:1033A00001940294B2E700000000164324000020BC
:1033B000252E326600000000F0B51FB496B084469A
:1033C0000C460246199D1898039049006800630056
:1033D000490840080193002A01D0012600E0002698
:1033E0009E19FE4BF6185B109E422BD36E00039F76
:1033F0000296002F00D00127F719F84EF84BBE199E
:103400009E421FD3039E0346F64F334309D03B46EB
:103410009C4201D1002A04D0019B002A05D001263C
:1034200004E0002039461BB0F0BD00269E19EE4B8B
:103430009E4207D8039F029E002F00D00127F61955
:103440009E4207D92B4660462146189AFFF7AEF8F0
:103450001BB0F0BD0023002C29DAE44EB04226DA7E
:10346000E34EB04201DB022321E0DE4EB0421EDB20
:10347000E04E070DBE19142E09DD3427BF1B039E35
:10348000FE400196BE40039FBE420BD00FE0039F5B
:10349000002F0CD11427BF1B0646FE400196BE40EC
:1034A000864204D1019BDE07F60F02239B1B0E46CA
:1034B000164318D1002D16DA002C03D0022B01D0B0
:1034C000012B06D00220FFF7B7F8FFF765F81BB015
:1034D000F0BD0220FFF7B0F8FFF75EF80122D20737
:1034E00051401BB0F0BD039E002E61D1BF4EB042D3
:1034F00020D1C148844201D1002A08D0B948814274
:1035000009DB002D10DB189829461BB0F0BD002008
:10351000B4491BB0F0BD002D06DA01222946D207BE
:10352000189851401BB0F0BDB44979440868496807
:103530001BB0F0BDAB4FB84225D1002D1FDA0029DA
:1035400004D0B14212D1002A09D018E0002A72D169
:10355000A649E20F0020D20711431BB0F0BD0020A6
:10356000E20F0146D20711431BB0F0BDB14206DAAB
:10357000234600203946FDF73BF81BB0F0BD10464E
:1035800021461BB0F0BDB14212DA0126B607B542A2
:1035900003D1234610461946FEE3994EB54207D1A2
:1035A000261E05DB1046314600F004FC1BB0F0BDC2
:1035B00067007F081646002A40D100290AD08B4AAE
:1035C000914229D1002C0EDD002D1CDB002011467C
:1035D0001BB0F0BD022B16D0002C14D0012B12D141
:1035E000002C14DB0FE0002C28DA002D09DB012B66
:1035F00003D000207D491BB0F0BD002081491BB0E5
:10360000F0BD012B03D0002001461BB0F0BD00200F
:103610000121C9071BB0F0BD724A91420ED1002CA6
:1036200001DA002B17D0022B06D00020C043FDF793
:1036300079F81BB0F0BD90E20120F8E7E217521CC8
:1036400094461A4307D000220892664C62465B1EDD
:103650001A4307D009E00120FEF7EEFFFEF7AAFFAC
:103660001BB0F0BD0022644C0892674A90427DDD99
:10367000664B674A98421FDD914202DC002D05DB54
:103680004DE05848814217DB002D48DD0220FEF74F
:10369000D3FFFEF797FF05460E460022534B214607
:1036A0000898FCF73DFF084671004908C00FC007A5
:1036B000014328461BB0F0BD914215DA002D2EDAE9
:1036C0000220FEF7B9FFFEF77DFF05460E460022F9
:1036D000464B21460898FCF723FF72005208C80F9A
:1036E000C0070243114617E03E4B994223DD002DEF
:1036F00015DD0220FEF7A0FFFEF764FF05460E462B
:1037000000223A4B21460898FCF70AFF0846710050
:103710004908C00FC007014328461BB0F0BD022076
:10372000FEF78AFFFEF758FF49004908E20FD2076B
:1037300011431BB0F0BD002230463946FCF7E2FED3
:10374000012205460E46D243FCF7CAFF314A324BEE
:10375000FCF7DEFE2A463346FCF7E2FE0022284B49
:10376000FCF7D6FE07462A46334600E064E00391A4
:1037700010461946FCF7D4FE3A46039BFCF7D0FEF0
:103780000746032209915207244B28463146FCF78D
:10379000C7FE07910C90224A204B38460999FCF746
:1037A000BFFE074601911F4A1F4B28463146FCF7D2
:1037B000B7FE3A46019BFCF7A5FE07460B460246BC
:1037C000099107990C98FCF7F9FD00250E4628464B
:1037D000079B0C9AFCF796FE3A4627E0FFFF1F0076
:1037E000FFFF0F000000F03F0000E0FF0000F07F4F
:1037F0000000404301FCFFFF0000F0BFB20B0000DF
:103800000000E03F0000F0FF0000E0410000F04356
:10381000FFFFEF3F555555555555D53F4715F73FD8
:10382000FE822B6544DF5DF80BAE543E099BFCF72E
:103830006FFE02460B4652E1012500202D05A942EC
:1038400007DA352230463946FCF74AFF064634206F
:10385000C0430A151218FE48101803900803FD49CA
:10386000000B01430F46FC49884201DC002003E0C5
:10387000FA49884202DA0120119005E000201190F7
:103880000398401C7F1B039011980597C200F448D1
:103890000F927844801843680268394630460D9389
:1038A0000292FCF72FFE07910C9030460D9B029A76
:1038B0000599FCF783FD02460B460020E549FCF71D
:1038C00097FE09910490079B0C9AFCF729FE129031
:1038D00000201090E3480D46784400680E900121C6
:1038E00078104907084311990D9B8904401801215C
:1038F000C90447183946029A0E98FCF703FE32466F
:10390000059BFCF705FE02460B4629461098FCF77E
:1039100007FE064602913B4629460E9A1098FCF790
:10392000FFFD079B0C9AFCF7F3FD3246029BFCF768
:10393000E9FD099B049AFCF7F3FD0591129A0A90A0
:103940002B4610461946FCF7EBFD06460246C648D4
:103950000F460B4606217844FEF7C7FD32463B462C
:103960000091049010461946FCF7DAFD009B049A7A
:10397000FCF7D6FD06460F462B461946129A1098BC
:10398000FCF71CFD059B0A9AFCF7CAFD32463B4634
:10399000FCF714FD109A079104902B461046194627
:1039A000FCF7BEFDB14E0022334609910290FCF7B0
:1039B00005FD079B049AFCF701FD0020074602461F
:1039C00033460091FCF79EFD099B029AFCF79AFD95
:1039D000079B049AFCF79CFD06460D913A46294642
:1039E000009B1098FCF79CFD07910C902B463046ED
:1039F000129A0D99FCF794FD05460E463A46009B37
:103A000005990A98FCF78CFD33462A46FCF7D6FC4C
:103A100002460B460746099107990C98FCF7CEFC25
:103A200000250E462846079B0C9AFCF76BFD3A468C
:103A3000099BFCF76DFD07460722099152078C4B45
:103A400031462846FCF76CFD07910090894A884B67
:103A500038460999FCF764FD07460191864A874B71
:103A600031462846FCF75CFD3A46019BFCF7A6FC74
:103A7000834B7B440F9A9B181A685B68FCF79EFC8B
:103A8000029009910398FCF74DFE05910490099B63
:103A9000029A07990098FCF791FC7A4B7B440F9AA5
:103AA0009B181A685B6817460393FCF787FC059B15
:103AB000049AFCF783FC0E462846059B049AFCF703
:103AC00021FD3A46039BFCF71DFD079B009AFCF77E
:103AD00019FD099B029AFCF71BFD02460B4619993A
:103AE00000200C900F461898FCF71AFD02910490E4
:103AF0003B460C9A19991898FCF704FD2A46334660
:103B0000FCF70EFD029B049AFCF758FC09910E90FD
:103B10002A46334639460C98FCF702FD06460F4606
:103B2000099B0E9AFCF74AFC574A0D46914220DB4E
:103B30005242AA18024310D132463B46FCF7E2FC3F
:103B400004900391514A524B09990E98FCF736FCA8
:103B5000039B049AFCF7A6FF1ED20220FEF76CFD21
:103B6000FEF730FD49004908E20FD20711431BB0B0
:103B7000F0BD6A00474B52089A420DD3464AAA1834
:103B8000024300D0CBE532463B46FCF7BBFC099B29
:103B90000E9AFCF787FFF5D96800002340082C49EE
:103BA0000393020D3D4B5218984223DD012000057E
:103BB000521CD04042195000400D401838497944F9
:103BC000096813468C463749C1408B4312030121D3
:103BD000120B090551181422101AC1400391002D2F
:103BE00001DA48420390624630463946FCF78AFCC7
:103BF00006460F4632463B4609990E98FCF7DEFB17
:103C000000252A46284B28460591FCF789FC079198
:103C10000C90264A264B28460599FCF781FC00911A
:103C2000029032463B4628460599FCF76BFC099BFF
:103C30000E9AFCF76DFC1F4A1F4BFCF771FC009BB2
:103C4000029AFCF7BBFB07460B460246099135E09A
:103C500001FCFFFF0000F03F8E9803007AB60B00D6
:103C6000C2070000040800002E0700000000084002
:103C700009C7EE3FFD033ADCF5015B14E02F3EBEC1
:103C800002060000C805000000009040FE822B657F
:103C90004715973C00CC904000346F3F0000E03F58
:103CA0001E050000FFFF0F00432EE63F396CA80CF5
:103CB000615C20BEEF39FAFE422EE63F07990C9870
:103CC000FCF77CFB05460E46079B0C9AFCF71AFC9A
:103CD0003A46099BFCF71CFC09912A4633460E9094
:103CE00010461946FCF71CFC074602462F480B46B7
:103CF000059105217844FEF7F8FB3A46059BFCF751
:103D00000FFC2A463346FCF703FC07460191284680
:103D10003146099B0E9AFCF703FC099B0E9AFCF7AF
:103D20004DFB012304910C9000229B07384601991A
:103D3000FCF7E8FB05910E903A4628463146019B78
:103D4000FCF7EEFB059B0E9AFCF752FC049B0C9AC9
:103D5000FCF7D8FB2A463346FCF7D4FB0022144B71
:103D6000FCF7D6FB064603980D46000541190915D8
:103D7000002912DC30462946039AFCF7B1FCFEF715
:103D80008DFB042801D1FEF727FC30462946039A13
:103D9000FCF7A6FC064601E004E029180B46324673
:103DA00021460898FCF7BCFB1BB0F0BDC003000027
:103DB0000000F03FF8B506460C46FCF799FE051EDC
:103DC0000F4600D00120014349000B484908411A21
:103DD000C90F0DD0002E01D0012100E000210C43BD
:103DE00061004908401AC00F02D10120FEF724FCEF
:103DF00028463946F8BD00000000F07F70B5054642
:103E0000FCF7A5FD41000446FF204908C005411A02
:103E1000C90F07D069004908401AC00F02D101201C
:103E2000FEF70AFC204670BD21C80613200C0000D6
:103E3000000000000000002F000000000700070045
:103E400000147F147F1400242A7F2A120062640861
:103E500013230036495522500000050300000000DE
:103E60001C224100000041221C000014083E0814DE
:103E70000008083E0808000000A0600000080808CC
:103E80000808000060600000002010080402003EE6
:103E90005149453E0000427F400000426151494681
:103EA000002141454B31001814127F100027454571
:103EB0004539003C4A494930000171090503003683
:103EC0004949493600064949291E00003636000096
:103ED000000056360000000814224100001414149B
:103EE0001414000041221408000201510906003296
:103EF0004959513E007C1211127C007F49494936D4
:103F0000003E41414122007F4141221C007F49493E
:103F10004941007F09090901003E4149497A007F72
:103F20000808087F0000417F4100002040413F0118
:103F3000007F08142241007F40404040007F020C77
:103F4000027F007F0408107F003E4141413E007F18
:103F500009090906003E4151215E007F09192946E1
:103F60000046494949310001017F0101003F4040BD
:103F7000403F001F2040201F003F4038403F00636B
:103F8000140814630007087008070061514945438D
:103F900000007F41410000552A552A55000041414B
:103FA0007F00000402010204004040404040000045
:103FB00001020400002054545478007F48444438DF
:103FC00000384444442000384444487F0038545466
:103FD000541800087E0901020018A4A4A47C007FE4
:103FE000080404780000447D4000004080847D0087
:103FF000007F102844000000417F4000007C04182E
:104000000478007C0804047800384444443800FCF8
:10401000242424180018242418FC007C0804040814
:1040200000485454542000043F444020003C404089
:10403000207C001C2040201C003C4030403C0044C0
:1040400028102844001CA0A0A07C004464544C44C8
:104050001414141414140000000000000000F03FB9
:10406000000000000000F83F000000000000000019
:104070000000004003B8E23F000000000000000024
:1040800006D0CF43EBFD4C3E033333333333E33FB2
:10409000FFAB6FDBB66DDB3F4D268F515555D53FDE
:1040A00001411DA96074D13F65DBC9934A86CD3FAC
:1040B000EF4E454A287ECA3F3E5555555555C53F9A
:1040C00093BDBE166CC166BF2CDE25AF6A56113F8C
:1040D000F16BD2C541BDBBBED0A4BE726937663E8E
:1040E000000000000000000008410008000000205F
:1040F0008000000018260008884100088000002089
:104100001804000028260008006CDC0200000000F3
:104110000000000001020304060708090000000077
:10412000000000000000000000000000000000008F
:10413000000000000000000000000000000000007F
:10414000000000000000000000000000000000006F
:10415000000000000000000000000000000000005F
:10416000000000000000000000000000000000004F
:10417000000000000000000000000000000000003F
:08418000000000000000000037
:04000005080000C12E
:00000001FF
